:1030000043C000005CC000005AC0000058C000006F
:1030100056C0000054C0000052C0000050C0000064
:103020004EC000004CC000004AC00000A2C4000016
:1030300046C0000044C0000042C0000040C0000084
:103040003EC000003CC000003AC0000038C0000094
:1030500036C0000034C0000032C0000030C00000A4
:103060002EC000002CC000002AC0000028C00000B4
:1030700026C00000771D7C1DF41D7C1DF41D801DE5
:103080009D1DF41DBC1DCE1D11241FBECFEFD2E02F
:10309000DEBFCDBF11E0A0E0B1E0E6E4FCE302C09A
:1030A00005900D92A436B107D9F721E0A4E6B1E06E
:1030B00001C01D92A338B207E1F721D1C2C5A0CF4C
:1030C0008823A9F09091F20091110DC09091E80031
:1030D0009B7F9093E8009091E80092FD06C09EB31C
:1030E0009111F9CF04C09091F1008150E9CF08957A
:1030F00030917201209171019091700180916F0166
:103100009093660180936701C90190936401809355
:1031100065010895CF93DF9300D000D000D0CDB7E4
:10312000DEB780916D01843009F44AC028F4813003
:1031300051F0833001F1BFC0853009F48FC0863073
:1031400009F4ADC0B8C080916E01823008F0B3C000
:10315000CFDF80916E0181110CC08091660190914A
:10316000670123E0FC0120935700E89507B600FCB7
:10317000FDCF85E007C080916E01982F9D7F29F4D7
:10318000B7DF89E08093000196C0813009F093C0D9
:10319000E0E0F0E084918F3F69F010926801F093D5
:1031A0006701E09366018AE08093000185E08093E7
:1031B0006B0181C03196E11520E3F20759F77BC01E
:1031C00080916E01833041F581E080936C018091A4
:1031D00073019091740120916F01892B61F021306E
:1031E00009F069C090917201809171019093690119
:1031F00080936A0160C021110CC02CE088E190E04E
:103200000FB6F894A895809360000FBE20936000DD
:1032100052C0109201014FC081114DC080916F01C9
:103220008F3F09F048C0E0E0F0E083E095E0809354
:103230005700E89507B600FCFDCF90935700E8953E
:1032400007B600FCFDCFE058FF4FE11520E3F20781
:1032500071F781E180935700E8952DC080E28C835F
:103260008CED8D838BEF8E838EE1898384E98A8355
:1032700089E88B8380916F0190916E01911105C057
:10328000FE01E80FF11D848107C09130A1F4FE0119
:10329000BF97E80FF11D8081809378010CC0809169
:1032A0006E01833041F480916F01811104C08091DF
:1032B00070018093680126960FB6F894DEBF0FBEAA
:1032C000CDBFDF91CF91089584B7877F84BF88E118
:1032D0000FB6F89480936000109260000FBE81E0FA
:1032E00085BF82E085BF8AB180638AB98BB1806374
:1032F0008BB91EC322D381E085BF15BE0895E4DFDC
:10330000789480910101882311F077D4FACF8091CD
:103310006C018111FACFEEDFE0916901F0916A0151
:103320000995CF92DF92EF92FF920F931F93CF9365
:10333000DF93809181019091820190937401809339
:10334000730180917501882341F08091750181504E
:1033500080937501811101C05D9A80917601882367
:1033600041F080917601815080937601811101C0F6
:103370005C9A80917C01833009F4A8C178F4813093
:1033800001F1823009F0D1C18091E800877F8093FC
:10339000E8005D9883E0809375010CC1853009F4E5
:1033A000B3C108F4A9C1863009F0BFC18091E8001B
:1033B000877F8093E8005D9A5C9A82E080930001A9
:1033C000ABC15C9883E0809376018091E800877FB1
:1033D0008093E80080916C01882329F09BDE5D9A40
:1033E0005C9A10926C018091730190917401009726
:1033F00041F12091E80022FD04C02EB32111F9CF44
:1034000094C12091F10020936D0101979093740174
:1034100080937301EEE6F1E08091F200882381F061
:103420008091F100819380917301909174010197D3
:10343000909374018093730181E0E337F80761F79B
:1034400069DE80910001853009F0ACC08091730184
:1034500090917401892B21F482E080930001A2C035
:103460008AE12EDE809166018F712ADE209166014D
:103470003091670100916401109165010F5F1F4F4A
:10348000021B130B80916E01811182C0E801D69559
:10349000C795C90120916801A22FB0E08C019D0160
:1034A000F12CEE24E39465E0D62E73E0C72E20972E
:1034B00009F442C04091F2004423D1F02197709169
:1034C000F1006091F100472F562FFC010A01E092B4
:1034D0005700E8951124F394AC01BD014E5F5F4F96
:1034E0006F4F7F4FDB01CA01F0E4FF120EC00FC027
:1034F0004091E8004B7F4093E8004091E80042FD96
:10350000DDCF4EB34111F9CF10C1209781F6F801FC
:10351000D0925700E89507B600FCFDCF209709F43C
:10352000C6CFFA01C0925700E89507B600FCFDCF60
:103530008A019B01F12CBBCF8091640190916501C0
:10354000909367018093660181E180935700E8952D
:1035500027C08091F200811109C08091E8008B7F23
:103560008093E8008091E80082FF16C001501109A5
:103570006091F100809166019091670154D3809130
:1035800066019091670101969093670180936601AF
:1035900001151105F1F604C08EB38111E3CFC5C04A
:1035A00080E18EDD8091E8008B7F8DC08EB3882313
:1035B00009F4BBC08091E80080FFF8CF8091000142
:1035C000893091F08A3059F480916E01813039F45C
:1035D00090916601809167019093F10002C0809103
:1035E00078018093F1006CC04091660150916701B1
:1035F00020916401309165012F5F3F4F241B350BF3
:1036000080916E01811131C0CA0140916801A42FDF
:10361000B0E03695279521153105F1F04091F20083
:10362000403269F44091E8004E7F4093E8004091B9
:10363000E80040FD04C04EB34111F9CF76C0FC0153
:10364000459154914093F1005093F1000296A11DD1
:10365000B11D21503109DFCF809164019091650146
:10366000909367018093660128C0823031F5E901AB
:10367000209719F18091F200803269F48091E8007E
:103680008E7F8093E8008091E80080FD04C08EB3B7
:103690008111F9CF4AC08091660190916701BBD238
:1036A0008093F1008091660190916701019690935B
:1036B0006701809366012197DBCF82E08093000150
:1036C0008091E8008E7F8093E80026C08091E8001A
:1036D000877F8093E80080916B018093F1001092C6
:1036E000F1001092F1001092F1008091000180939E
:1036F000F1001092F100E4CF8091E800877F809381
:10370000E80010926B0108C08091E800877F8093E9
:10371000E8008091000165CFDF91CF911F910F915B
:10372000FF90EF90DF90CF9053C0DF91CF911F912A
:103730000F91FF90EF90DF90CF900895292F30E008
:103740002230310559F02330310569F0213031053F
:10375000C1F080E090E020E030E017C08BE190E025
:1037600026E331E012C0811106C08091320190E061
:1037700022E331E00AC08091020190E022E031E0D2
:1037800004C082E190E021E531E0FA013183208339
:103790000895EBEEF0E0808181608083EDEEF0E053
:1037A00010826093EC0040838091EE00881F882790
:1037B000881F08951092F4001092F0001092E80013
:1037C0001092ED00EBEEF0E080818E7F8083089513
:1037D00080917B0187FD05C08091E80080FF0DC0CE
:1037E00010C08091E80082FD04C08EB38111F9CF32
:1037F00008958091E8008B7F07C08EB38111ECCFD4
:1038000008958091E8008E7F8093E80008952091CC
:103810008101309182012617370748F06115710543
:1038200039F42091E8002E7F2093E80001C0B9010F
:1038300030E06115710591F12091E80023FD38C059
:103840002091E80022FF06C08091E80082FF29C095
:1038500080E008952EB3222369F12EB3253061F163
:103860002091E80020FFE5CF2091F200FC01CF017C
:103870006115710549F0203238F481918093F1008F
:10388000615071092F5FF3CF31E0203209F030E051
:103890002091E8002E7F2093E800CBCF3111CCCFD0
:1038A000D3CF8EB3882331F08EB3853069F604C050
:1038B00081E0089582E0089583E0089554D056D0C1
:1038C0001EBA1092790184E089BD89B5826089BDF4
:1038D00009B400FEFDCF8091D800982F9F77909378
:1038E000D80080688093D800809163008E7F809399
:1038F00063008091D8008F7D8093D8008091E00094
:103900008E7F8093E0008091E1008E7F8093E100C4
:103910008091E20081608093E2008091E100877FE6
:103920008093E1008091E20088608093E200089536
:10393000C5DF81E080937A010895C0DFE0EEF0E01A
:10394000808181608083E8EDF0E080818F778083E3
:103950000AD00CD019BCE3E6F0E08081816080835E
:1039600010927A0108951092E20008951092E100F9
:1039700008951F920F920FB60F9211242F933F9329
:103980004F935F936F937F938F939F93AF93BF9367
:10399000EF93FF938091E10080FF1BC08091E200D4
:1039A00080FF17C08091E1008E7F8093E1008091BD
:1039B000E2008E7F8093E2008091E200806180933C
:1039C000E2008091D80080628093D80019BC1EBAB2
:1039D00013D18091E10084FF29C08091E20084FF2F
:1039E00025C084E089BD89B5826089BD09B400FE27
:1039F000FDCF8091D8008F7D8093D8008091E10029
:103A00008F7E8093E1008091E2008F7E8093E200C0
:103A10008091E20081608093E200809179018823A7
:103A200011F084E001C081E08EBBE6D08091E1001E
:103A300083FF22C08091E20083FF1EC08091E100DD
:103A4000877F8093E10082E08EBB109279018091A4
:103A5000E1008E7F8093E1008091E2008E7F809371
:103A6000E2008091E20080618093E200A3DE42E206
:103A700060E080E08EDEC0D08091E10082FF0AC06D
:103A80008091E20082FF06C08091E1008B7F8093ED
:103A9000E100B2D0FF91EF91BF91AF919F918F91D3
:103AA0007F916F915F914F913F912F910F900FBE3A
:103AB0000F901F9018951F93CF93DF9300D0CDB731
:103AC000DEB7EBE7F1E08091F100819381E0E3382C
:103AD000F807C9F720917B0180917C0190E08A3042
:103AE000910508F081C0FC01E65CF74E8EC02D7F89
:103AF000203809F079C069C02D7F09F466C074C010
:103B0000211172C010917D018091E800877F809320
:103B1000E8005EDE8091E80080FD04C08EB3811174
:103B2000F9CF53C0812F8F7711F093E001C092E05D
:103B30009EBB80688093E30048C02058223008F084
:103B400053C0AE014F5F5F4F60917F0180917D0157
:103B500090917E01F3DD0097C1F12091E800277F6D
:103B60002093E800BC0189819A8151DE8091E800B0
:103B70008B7F8093E80029C02038B1F58091E80060
:103B8000877F8093E800809179018093F100809194
:103B9000E8008E7F8093E8001BDE17C0211124C04F
:103BA00090917D01923088F48091E800877F809326
:103BB000E800909379010CDE80917901882311F05F
:103BC00084E001C083E08EBB17D08091E80083FFC2
:103BD0000DC08091EB0080628093EB008091E80043
:103BE000877F8093E80002C09CDBEFCF0F900F909F
:103BF000DF91CF911F91089508958EB3882321F00E
:103C00008091E80083FD57CF0895EE0FFF1F0590C8
:103C1000F491E02D0994F999FECF92BD81BDF89AF7
:103C2000992780B50895262FF999FECF1FBA92BD26
:103C300081BD20BD0FB6F894FA9AF99A0FBE01968D
:063C40000895F894FFCF87
:103C460002012E03410072006400750069006E00D7
:103C56006F002000550053004200320053006500FB
:103C66007200690061006C002000440046005500A7
:103C760000000403090409021B0001010080320947
:103C860004000000FE0102000921030000000C00F0
:103C9600011201100100000020EB03EF2F000000CD
:043CA6000100010018
:0400000300003000C9
:00000001FF
